:20811600AD501F161A401F0002697FE9CF02AD50BDBDBD0733ACA9A9A9A9A9A9A9A91F0079
:06813600BDBD0B001306A5
:02000004003FBB
:20200000BDBDBD0AA5A4C154C42A1AAD8AA5300B3A09A401C1C685C430F7C54A16AD8AA423
:202020007F06CB0FC281C2C42ACB055CCBC3010101C1C1C42E2B01C1A9C1C42A1CAD8AA5E0
:20204000300B3A09A401C1C685C430F7C54A07AD8AA47F060200D309C281C2C4D30101C1B3
:202060008ABEBEBE06DCA670E11733A9C460A9A70013A700E19B20E1F240E1CDA70000A9F5
:20208000A7E1A5130000A9A7A46E0000A9A7A446A70000A9A71CA66F0C6F0F580D64E18286
:2020A000697FEFEB750478E0E6C5AA81C5C400EFDEA66F0B6F0E580C64176915EFD175042E
:2020C00078E0CCC50302020101C541ABA4C5C4DFC5ED8BEF8BA66F0B6F0E580C64176915A0
:2020E000EFAD750478E0A8C50302020101C541ABA400C552C56768A66F0B6F0E580C640D8B
:20210000690BEF8B750478E086C53132C52E2FA66F0A6F9658946409690773758D786F8A5D
:20212000C50181C5C441A66F0A6F0C580A640B69095C75037858C50405C50304020301C5A8
:2021400041ABA4C5D4C447A66F0A6F0C580A640B69093B75037837C5292AC503020201A681
:20216000C501A6A9C5C48F8F24A66F0A6F0C580A64AF69AD1975037815C5AA81C5C40DC5F1
:202180000302020101C541ABA4C5C400A9A906BDBDBD08A5A1BFEC48A9515803BFFE004432
:2021A0004241A9FF0F000948C4A901C4BFC5640146A38F8FA946A30833102D80FFA9AB4451
:2021C0004241FF0F001B0001444241A9FF0F0008464442A97F5A1801A3A600001F17A61030
:2021E000A100A70FA3A90AA9AB9304A9AB92A9A748C501A7A601C546A38F8FA9A344A9416F
:20220000A1A901A146A7C1A7C60044A94241FF0F00A548C47F97FF88BEBEBE06BDBDBD066E
:20222000A4465052D104C1EF03BFD1D958096F09700578B0A2041002087F650144A4A94233
:20224000ABD18F8FFFAE00444241FF0F0003C149D9A66403690D5EA9AB5E084658A9A4BF37
:20226000C6D9A9AB41A2A37F8F07C3A581C3BFC501D1F8D9780558037012C110C3A470B14A
:20228000A981C3C4C3A901C3BFC4D96F0CC10AC3CC3006A901C3BFC486BEBEBE06BDBDBD09
:2022A00014A9525ED5C5465244015054BFC4AD7F1286A47F650009AD86A4AD86A47F86000B
:2022C0001BBFC47FAD86A4AD7F1686A47FDC8116AD86A4AD7F1686A47F5101AD7F1A86A428
:2022E0007F6500ED01AD7F1286A47F65000AAD7F1E86A47F6500CEAD86A47FDE547F37A9A9
:202300000154A654A6A1C2A3A630A6A381AD86A47FDEAD8EA47F71AD8EA4AD8AA4AD86A48E
:202320007F4DADAD868AA5A47F167FDCAD86A47F9E5430A984540BD70552A30154548C35EF
:20234000540F8C01C43AE37B52A406548CC2520454C45094BEBEBE06BDBDBD0201A8A90A6C
:20236000A4A9BF4156A98F8F7F8FA2700F500DA10A0CA1F607C3A901C3BFC4A1032B022D61
:20238000C3A481C3C4C382A901C3C4BEBEBE06BDBDBD02A9A5A4417F97A600A309A6A306F5
:2023A000A901A301A94107C1A901C1BFC5A3A6A80DA6A381A3C1A781C1BFC70EFA0014A9CE
:2023C000A417A9A2A901C181A601C18CC60001A5F607C1A901C1BFC482BEBEBE06BDBDBD06
:2023E000AD8A6EA5D4C4C24644D1070008BFD10604BFD101ADADEBA4AD86A542EAA47F9DF7
:202400000A00920D92FD2ED10D9232070D92010DFF920D9202F71E00090A92A4A9C53003CF
:202420000630A603C107C3A681C3C60181170D92FF0D01920D92F8D9A3FE7F580A927F9711
:20244000FFA900010DA492D00AC1009208A30DA6B0A8927F8FEEBEBEBE06BDBDBD14A95299
:202460005ED5C5465244015054BFC4AD7F1286A47F650009AD86A4AD86A47F86001BBFC4BA
:202480007AAD86A4AD7F1686A47FDC8116AD86A4AD7F1686A47F5101AD7F1A86A47F650025
:2024A000ED01AD7F1286A47F65000AAD7F1E86A47F6500CEAD86A47FDE547F37A90154A6D0
:2024C00054A6A2C3A1A2A92E81A1AD86A47FDEAD8EA47F71AD8EA4AD8AA4AD86A47F4DAD54
:2024E000AD868AA5A47F167FDCAD86A47F9E5430A984540AD7548C35540E8C01C43A805238
:20250000A40654C4C3520454C45094BEBEBE06BDBDBD02A5A441A9FFA87F97A94117410138
:20252000A104A7A104AB3005A9A1A9C4C281A901C2C40EEE82BEBEBE06BDBDBDAD8AAD0ABD
:20254000A5C4D4C2AD4644D1B4D1C3B4A9A4FB0A92A4ADADA4FC86A5A4427F5A0CA3920FBC
:20256000D1927F0F010A92C304C102000C92A6A30F927F8FADF6BEBEBE06BDBDBDAD8A74E8
:202580000CC292D4C4464446A50E444A48D19206BFD10E9206AD7F2286A47F65000041AD01
:2025A0007F2686A47F650014AD7F128AA47F650049AD7F1E8AA47F6500081B01002FE04AE2
:2025C00048AD8AA4AD7F168AA47FDCAD7F1E8AA47F658100EDAD7F168AA47F6500081B00CC
:2025E00000A8F04A48AD8AA4AD7F168AA47F51AD7F168AA47F650100EDADADEFA48AAD0E22
:2026000042A5EE92A47F5A0A920F92020F0F920FFF927F970A9201A40181C40CD9A3927F11
:20262000580AD1920F920C927F0F0A927F97010F9204C102000A92A30F920C927F8FF4BEAF
:20264000BEBE06BDBDBD18A452516256D501C5464446587FEC444A480051FFB1A954524115
:20266000037FFEBFC4AD7F1286A47F650009AD8AA4AD86A47F86AD7F128AA47F650016AD38
:20268000AD90A4AD8BA58AA47F76AD8AA4AD014B8AA47FD2AD8AA47FDEA9587F37ADA9536E
:2026A000015890A658A4A97F71AD90A4AD8AA4AD8AA47F4D5653C454E090512E5181AD8ADA
:2026C000A4AD7F2A8AA47FDCAD8AA47F9EA901A9A7A9C4588458ADA790A47F1BAD90A4AD34
:2026E0008AA4AD8AA47F4D0AD7580158525841047FFE037FECC4A17F68A4A1085558528180
:202700004104BFFE03BFECC1A27F68A4A201A91008A901A4A9C2C103BFC1A41035C1E0AD83
:202720008AA4AD7F2A8AA47FDCAD8AA47F9EA901A9A7A9C4588458ADA790A47F1BAD90A4F6
:20274000AD8AA4AD8AA47F4DAD7F128AA47F6500CF5898C4A3BEBEBE06BDBDBDAD8A72A5BC
:20276000C4D4AD10C27F22864692A4447F650018AD7F2686A47F65000BAD7F1286A47F65A8
:20278000000C1B012FE00400A8F0004644ADADF0A4ADECA586A47F76109210FF92ADADEB09
:2027A000A48642ADA5D1D9EAA47F430A92D9410350027010A3927F58D1A8FF080A927F9798
:2027C000FFA9D10A92A311927F0FC10A0008A39211D1B0A8927F8FD94103580278C3A48157
:2027E000C3C4C3F2A901C3BFC4BEBEBE06BDBDBD0EA5585AA4C113C50302020101C541ABDA
:20280000A4C5C4AD88A47F5511C50302020101C541ABA4C5C4D4C4484648464C4AD9A4A9B1
:202820009F1902E000A44C4AAC30B1A84DA6A95BABA9F0A9C0F0A7A0A71300A64442ABFF24
:20284000AAFFA941A9FF0FFF0F00E0CA00E0C7C0F0A7A0A71200A64442ABFFAAFFA941A90D
:20286000FF0FFF0F0058005600A64442AB00AA00A94100A800FF0F000CAD8CA4ADBFC38CC9
:20288000A47F86D9A4610D612D412B45204615470AEFA36518660D67E09CAD42A18CA47FF5
:2028A000DDEF93AD42A18CA47F39EF8AAD42A18CA47F7AEF81AD42A18CA47F5978AD7F1251
:2028C0008CA47F6500284D03460266C2A481C2C44D034E026EC2A481C2C44D03490269C210
:2028E000A481C2C4C2A901C2BFC4BFC3484D03460266C2A481C2C44D034E026EC2A481C290
:20290000C44D03490269C2A481C2C4C2A901C2BFC4BFC3214D034E026EC2A481C2C44D0363
:20292000410261C2A481C2C44D034E026EC2A481C2C4BFC38EBEBEBE06BDBDBD0EA5014C84
:2029400080FE20584CC94E47484C10FDA946A67FAE46C44C127FA94600D94A496415642B2A
:20296000580C5827251D412FA9BB022B44612863323F700A6F15A99B021D690F34750C788A
:202980000A2F4C7F107FB501EFB4ADAD8687A4A542A1447F1C1AADAD8688A4A542A1447F68
:2029A000ED0EC381C3C5B1A84AC4014146C1FDD9752C6F2A78285826702448050120BF476A
:2029C000C1A802494707A80B46BFC40446BFC4014146494709C1074601BFC44146C10DA9FB
:2029E00046A901C9A2064EA201A9024C410180FEA246A9A67F3D464A05A90146C44E460AF4
:202A000046462001817FAE4EC4C1274CA22B4CA94C30A67FAE494C4703C105C284BF82D9FF
:202A2000780558037003C1056103410DCACCBFCA084CA94C20A67FAE4C7F974A8EBEBEBE04
:202A400006BDBDBD084652545644C50302020101C541ABA4C5C4484844D4A20C487F97A6A5
:202A600001A2A9A6034105487F97414441CC72A842C3A80DC40BA809A981A12046670AFC39
:202A8000410C4148818101A146C3670AFB4142A81344C410A80EA981A12046670AFC05A1F7
:202AA00000466788BEBEBE06BDBDBD08A55652544446C50302020101C541ABA4C5C44848FB
:202AC0004944D5A20C7F9FA601A2A9A60444D404487F9F4441CC464172A842C4A80E44C4F4
:202AE0000BA809A981A320A1670AFC410B418148A38448A1670AFA4142A81344C410A80E42
:202B0000A981A320A1670AFC05A300A16788BEBEBE06BDBDBDAD8EAD1612A44CC29214D2D1
:202B2000E29216C192C17F971692A616A9A692199202C11692A4E95A4A474948FF1200E18B
:202B4000510114A301C1C492671992190192C1C425ED0101C1A1124A100C4A01094A02067D
:202B60004A08034A040101C4C4C52B082BF020F423EF052DE630E1AD8CA4ADA1428AA47FAC
:202B800000C1C46C0A6C0D4C2E68166A272F74217A1C2A01C1A9C1C46C044A40204A001947
:202BA00001C1A9C1C468044A20134A000C4A00094A00064A00034A8001C1A9C10101C1C479
:202BC000476E4F7326AD8CA4ADADA4F68AA542A47F39ADA4F6149212A49267A9FF081992C3
:202BE00019A992EFA81992FFEFA84A14AD8CA4ADA4F542A4AD1444468AA4927F41EF8EAD4D
:202C00008CA4ADA4F542A4AD1444468AA4927FA87B4A60A9A6000FA6003B20634052A60007
:202C200000A9A63413A60000A9A716A60000A9A70DA60000A9A6044C48494C36374C3334AD
:202C40004C03020201011901414C921092108F8F921092174C2B2C4C030202010119014178
:202C60004C920E920E8F8F920E924CC4C4D41D4C0302020101414C4C190192C4C40E4C03F4
:202C800002020101414C4CC41992C41992FFE0A41992ADEABEBEBE06BDBDBD0650A40044FD
:202CA0004615A9A8004281A344427FEE00054601C40601010AF30086BEBEBE06AD90ADA4A6
:202CC00070A48F84ADA470900101A47F230109ADA470A400F88F84AD7006224080A50AC442
:202CE00001A51FBE0CC4FE0A020CFD0A000CFF0A000CFF0A7F0C7F0A000CFFF500FD001A0F
:202D0000220050A41FC01C001FC10FC47FC4BFC4DFC4EFC4F7C407CCBF112011021101121E
:202D2000BF13C508A40CC5FFA40A0B1CFFC5001A001A00C4001BE0011B11401F101A6906CF
:202D4000017FEB060511053A020802490057014D5F033A04355A0808081A061E07195109B4
:202D60000B0A4D0040367F00BF94410040367F0EBF94397F1E067F2A1E7F3C004036BF94EB
:202D80002B0040367F48BF94237F7A037FA4004036BF94187FCE004036BF94100040367F3A
:202DA000E0BF94080040367FECBF9436947F38004037940836940137947FEB06BD042240E7
:202DC00080A506C4A9FFC4A50C0AC420C5DF1AC900C01F36A40094CC38CCA5BFC494360261
:202DE000018501840040A40A0BBF941F32380385BF361F36BF940CA8D010A9D01F33A8FFC8
:202E0000A9BF001FBF04200EFC1FBF02201F33001F360C0C027F441F31BF371F33BF004320
:202E2000697FA27FBCAD7FF283A442A164157F9800E384BE1F33BF00060EAD8EA4ADFF4AF6
:202E40000784AD8EA586A43FE042087FD58E06BD02416200400201CCC4857FEB22401252A2
:202E600000400201CCBFC47FEB2240127F9C02017FEB3F40400201C9A1BFC17FEB224012D0
:202E8000A17F1BEB40400201C9A1BFC17FEB22401202A17F4F224012A1D500400201CCBF98
:202EA000C47FEB2240121FC0297F4F221FC0BF291A697FA27FA2AD81A47FD9A9A6000BA6C2
:202EC00000C300EE0FD510108BA60000A9A7A5A60000A9A68CEF7E00400201CCBFC47FEB2D
:202EE0002240123FF0A982BE06BDBDBD207F837F437F191026002F00A916A8006900007FD9
:202F0000007F3840F57FDA7FBC1FC029C02A7F83AD90A4ADFF4A0784AD90A588A43FE0426C
:202F2000087FD501057F83EFEC1FC0297F4F221FC0BF291A69400000F8C0405D6080C009D2
:202F4000077F4437BF93BFC2557FBCAD7F0895A4426415607F9800E980C01FC0BFC2297F3D
:202F60004F221FC0BF291A011F3056020E07697F4F1F3002697FA27FBCAD7F1E96A44264CB
:202F800018607F980049A956A74006A5381C8456A91FA4ADA794A4380384542D09541D0ADE
:202FA00053A9F0950A530A1F3052A9F05C2356A919A4A9383940249C0A94A9F0C556A91C83
:202FC000A4A9380092D080C0CDBFC25D0109067F4437BF93BFC27FA2A18F5DE1387F830178
:202FE000577FA27FBCAD7F3897A442900E607F98000C087F44371F33BF93BF00061F33005F
:20300000BF007FA2A1DB80487F480BA27F04A240061D0A7F04A27F5403277F04A27F5A085E
:203020002A7F04A2327F6403A27F04608F8411A3A135013484A37FEB7640121F33BF005810
:203040007FA27FBCAD7F6A98A4426403607F9800DF1F33BF000B047F44371F33BF93BF00C6
:20306000597FA27FBCAD7F6E99A442640D607F98000EAD7F7C99A4426407607F9800D8604B
:203080001F33BF008F840B097F44371F33BF93BF003F84423F88447FA55A7FA27FBCAD7F85
:2030A000889AA4426402607F9800DD601F33BF008F840B0A7F44371F33BF93BF005B7FA2DC
:2030C0007FBCAD7F8C9BA4426407607F9800E51F3300BF0010A3FF9426012584A37FEB0180
:2030E0001F33BF005C7FA27FBCA11413AD7FBA9CA4426418607F9800DD1F33BF00030010E3
:20310000A3FFD416011584A37FEB01BBA940127F837F4FBFF03FF0A069A9BEBEBE06A4A9D8
:2031200044A70BA701A98781850001A4FA060242027FD58206408203A602C5A604A9A6F9D0
:20314000A603D4C506C44082A9FEA703A602C5A606C6A9FEA7F7D4C506BDA9A4E1821F3DC4
:203160003E674000A582A9A40CA4C4A9FEA702A9A9A4F70200C4AB00AA00A6A9FEA402A98E
:2031800002AB030003A902A5A00200A9A44DA64BA705A7C40200A905A0C40200A704A77F01
:2031A00035A904A07F35A713A905A1C4FE2BA1C4A0ABFEC4A9FEA1AB021EA7A9C411A1A9EF
:2031C000C4A0A9FEABFE01ABC4A9FEAB0409A1ABFEC4A9FEAB02A7C47F451F3E0467BE064F
:2031E000A45AACC0A9FEABA604A634A9A0AB0002A7AA00A602C7C7A9FEA702A902AB030069
:2032000004A9025A4000A9ABA40EC40C7F35C7C4ABFEA9FEAB02C7A77F45A901C006C001F0
:2032200006BDBDBD04A9A4A90742027FD5A970A9047F5922A90044A900434402A60300032D
:203240004402A1121F3DA93E01A9FEA967A382C2071F3E04670048C2A9FEA6A138A202A947
:20326000C4A9FEA64402A702A6038202004000A9A6A406C404A9A71842027FD5A4A90BC206
:20328000A3ABFEA97F38A37F591F3E0467A9107F35A701C2A2A97FE01F3E0467A90284A91E
:2032A000BEBEBE061F3E0006BDBD02ACAB00AA00024AAB030004A9025A001F17A6A9AB03B8
:2032C000000F44A6A942027FD5A4A90500A97FAE82A1BEBE06BDBDBD024CA9A911A9004214
:2032E000A900414202A60300034202A20400EF87A901A9FEA902A109A1A981ABABAA5804C7
:203300000102A91F3D3E671F3E00154202A60B42020800000002D4C404000002BF000202EA
:20332000A4A928A955A6A7A602ACA9ACABAAA9AC0CA7045A04A9A1A9A902ABFAA7A9A2C46C
:20334000ABFE57ACAB05D4A7DE03A70300247F35A9A003A718A9ABAB025AC4A9FEAB02A60F
:20336000A9A9FEA702A9C4A601C17F45A1A97FE0021F3E046782A1BEBEBE061F3DBD3E6727
:20338000001F3E000D02A90AC4A9D4ABFEABA9A9F81F3E0467A9BE061F3DBD3E67001F3EDF
:2033A000000D02A90AC4D4A9FEA148A1A9F81F3E0467A9BE0600061B421625001B42162576
:2033C000001B421625001B421625001B421625001B421625001B421625001B421625001B42
:2033E000421625001B421625001B421625001B421625001B421625001B421625001B4216E5
:2034000025001B421625001B421625001B421625001B421625001B421625001B42162500F7
:203420001B421625001B421625001B421625001B421625001B421625001B421625001B429F
:203440001625001B421625001B421625001B421625001B421625001B421625001B421625A1
:20346000001B421625001B421625001B421625001B421625001B421625001B421625001BA1
:20348000421625001B421625001B421625001B421625001B421625001B421625001B421644
:2034A00025001B421625001B421625001B421625001B421625001B421625001B4216250057
:2034C0001B421625001B421617021B421625001B421625001B421625001B421625001B420B
:2034E0001625001B421625001B421625001B421625001B421625001B421625001B42162501
:20350000001B421625001B421625001B421625001B421625001B421625001B421625001B00
:20352000421625001B421625001B421625001B42162500221FC000DD6912FFA940121FC014
:20354000120012FD120112FB120012FF1A6906221FC0BF25BF251A6906221FC0120012FF08
:20356000120012FF120012FF1202120112FB12FF1A6906221FC012FF12FE120012001200DF
:203580001A6906221FC0BF291A69062200101FC0C440D40012FF12FD120112FB120012FFE4
:2035A0001A6906BD0011A8A9C40622C4101A25C4800522C47F1A001011AA940FA9A7AB191A
:2035C00022CC4011A70F94F011A8941A697F83037F4F11FD2211BF1AA60103020B221FC0FD
:2035E00003117F86A8111AA60312224011005669C17FA900C1A94012C1801ABE69062200A3
:20360000101FC0A4BF1BC4FE020CC4C508A410C501A4200220040D09C5001C001D001D0146
:203620001D021D041D081D101D201D401C011C101C0220001C001C001C00C40019001C0486
:203640001A69067F8322FD80691C08671FC01CF71A697F8B0C027FA37FFE06022200E0C452
:20366000FFCCFFD4FFDCFFE4FFECFFF4FFFCFF1A1FFF0F69384139413A413B413C413D4181
:203680003E413F41940101820602AD02010182A47F230103FF05414203A9820602AD82A4FE
:2036A0008206221FBF060006001A6906BD0401A925A900AD4201C78241A4027FEB1F36389D
:2036C0006411A100ADA1380144C78443A4027FEBA1053801020084BE06BD02A4AD0201012E
:2036E00082A47F230105BFC10005034142C182BE06BDBD02AD02010182A47F2301030005EC
:20370000034142A901ADA101A9820201A47F230105034142A9A982BEA1BE06BD04A4AD80A1
:2037200084A47FB30024AD4084A47FB3001CAD2084A47FB30014AD1084A47FB3000CAD0895
:2037400084A47FB30004BFC102C1C9A184BE06BDBDBD10A9A44F500147AD4CC2BF4B8C3911
:20376000BF46AD02014586A47FEB077F890024BF48AD02014788A47FEB0AF250237FF1A66F
:203780001F00A9A6D5BF4EAD02014D8EA47FEB400026AD4AC1BF498AA402017FEB5001AD81
:2037A00002010184A47F23010B034344A95000AAA9A6AEBF41BF4250E7ADA1A382A57F38FE
:2037C00090BEBEBE06BDA9A546E196BF631F3B3ACDC5050000AA0E006200B1A7AA2BB1A666
:2037E0007803AA01D500A01B6204DD6204A701A8A02B04DD2B04A601A8A07804DD7804AAD1
:2038000001A8A60FAB7203100877036103200200A80200AB61B1A00200A5A0A8A704000071
:203820000200A5A0A8A6B0A00200A5A00A91A703A900AB611C720477061FA61D021BA603AB
:20384000020201A8AA04A80003A800A9A800A809A603020201A8A908A8B67FD8C100020039
:20386000A1BE06BDBD8080A27FD21F360F020F0C01C204A27FD2011F360CA10FF5BEBE06B2
:20388000BDBDBD021F3DA53E4CA467A27FD242A3A27FC51F3EA40467A182BEBEBE06BDBD52
:2038A000021F3DA5A43E671F3E060BBF0600A406C4FF0C0EFD4080AC04AC01A9AC1F360F2F
:2038C000070CA5A9C4FFF3AC0A0C0C01A5AC0F020FA50B84020042A27FC51F3EA404678245
:2038E000A1BEBE0600BDBDBDBDBDBD4FA7025E5E0258A9A5525002584A4CA403A9A50F1332
:203900004A13ABA97FB54244A702588C06AB01AA00F733F800AB1F174CA4AB1F174CA9E9A1
:2039200000BDBDBDBDBDBDA8025E5E0258A9A5525002584A4CA403A9A5120E4A12ABA97F35
:20394000B54648A702588C06A9ABF9338C0600AB1F174CAB1F174C5A00EA00BDBDBDBDBD30
:20396000BDA9A55003A9520F135013504A524CA97FB542448C06AB01AA00FA33F800AB1FF7
:203980001752A4AB1F1752A9EC00BDBDBDBDBDBDA9A55003A952110E5010504A524CA97F69
:2039A000B546488C06A9FD33FB00AB1F1752AB1F17525A00EF3F5E5E0E3552A53552A8A0AB
:2039C000ACA5A0A8A081A0A9A54A534A5A4853484C03A94E0A485D4E544C484A080348084B
:2039E000465346445344A9AB08DE0601A424021CA9DEA9B0FFA8C7AC011FC11A00C710FA20
:203A0000A86419AC08A90EF3010CED1FC11A00FC0E000CA9811FC11A00FC87190EF91FC172
:203A20001A400601BDA5AC0484E00380E800A6AB7CA9AA0081001FC11B0012A508A6A90199
:203A4000A7F5016AC4E201A7A6ED0762A0021A1B000001D702B3A6A9A5A7A60A1B00D7066E
:203A6000A881170EFF17C724AA12A5A9DEA8A7A7A0A901A9A7A6AA0117C611A5A9DEA8A6C6
:203A8000A6A0A901A9A6A6AA0317C61B031B001503AB041503AB031503AB051503AB0680E0
:203AA00050EE07CE2011DF1120010C8BABBE06A8ABA9A4A9CEA8A019A9000181A901A7A90E
:203AC000C500A88066A9ACC508A90EF901020CEE0006BDBD14A6D4A9C4484648464C4A4C4B
:203AE000AC20A65BAC14A910A9FF00A75824A6AAFFABAA58044C4A7FAD8CA4AD7F3A88A431
:203B00007FDCAC204C4A5BAC14A910A9FF0036A71400FFA9A70FADAD90A4AD8CA58CA47F02
:203B200021504E53A701A1A700FEA9A7043F3E1CA7144C44AA0F42A73B41AC20ABAA5A00B4
:203B400052FFAEA6320036A70E3F42AD1F3DA2BF3D8CA57F7B254C3644AA0F42A7413BAC9B
:203B600020ABAA5A0052FFAEADAD9094A5A47F4654527FDC504EA903C2D294BEBE06BDBD7C
:203B8000BD081F3DA5A43E4867A27FB2006AF2A3E2417F970A44469207044B4668420A4409
:203BA000019241A603440241A7070214A1480AA97F5BA90C480AA97F5BA442014801A90163
:203BC000E248A17F3801A101E248A14844A14441A14103420EA27F47001BA2F2E2410AC406
:203BE000204244BB20441E00A901C2A1A944A67FD6A9000B0AC2001F3E0467A9FF0CA1014F
:203C000044A644E51F3E04674688BEBEBE06BDBD808CA27F7EA93F5AA27F7EA1A9BEA8BE47
:203C200006BDBDBD02A6E184DCC4D490D441D4AAA80091A7000258A9A1410004A2727D4108
:203C4000FF74DDC5D590D442D5AAA80091A7000258A9A3420004A25B6342FF5A41420AAB56
:203C6000A3A3ABA2A242415DA8A9ABAC360FAC0008A9AB2CA9A3ABA957A340A25E5E2AA705
:203C80005E5E0258413552A33552A8A4ACA3A4A8C00057A30040A304A8FFA4990FA41DA43C
:203CA000FF14A700A7A493A7C6D682BEBEBE06D5C5F7D4C4F433A700A8F0EE33ECA4BD006A
:203CC000000007BDA8C4CCA00AA0C0A9A9ABA987D10FA0C0A9A9ABA9A0018782FFA967D141
:203CE000010EE6A229A2AB81AB0EAA08ABAAAAC0A9A9AAA785D71208ABA7A7C0A9A9A7A79A
:203D0000AB8501FF82A967D7AB01A90EDD00000000BE69BE06ABBDA40000070000BDC4A0AB
:203D2000C0A9A901ACA9A70FA908C963FF850EF1A91DA21BA200008108A2A7A7C0A901A558
:203D4000A9A7A7A00FA908CF63FF85AB0EECBEBE06BDBDBD02A679DDDCA7C4D490D441D466
:203D6000AAA80099A9A141007241FF69C5D590D442D5AAA80099A9A342005A42FF5D4142A9
:203D8000A400D6C6A535A9AB41A203A9A30BA955A3A9A954A2A94101D6C6A0D6A941C6A939
:203DA000ABA0A9A1030DE3A502A5A509A5D6C65203A0A490C00057A30040A304A8FFA49992
:203DC0000FA4FF17A4FF0EA700A7A493A7C6D682BEBEBE0633A700A8F0F433F2BDBDBD021B
:203DE000A671DDDCA7C4D490D441D4AAA800A9A141006B41FF62C5D590D442D5AAA800A941
:203E0000A342005A42FF514142A433AC47A1A905A053ABAC05A253AB28A9005CAC47A25331
:203E2000ABAC47A353AB05A253ABC628A90047A253ABD6C60390A4C00057A30040A304A804
:203E4000FFA4990FA40117A4FF0EA700A7A493A7C6D682BEBEBE0633A700A8F0F433F2BDD8
:203E6000BDBD021F3DA4A93E424B67C1FF3DA20403A938D1A9130A91A806817F590A91009A
:203E800008A8F7D1E1F191030A91A20AB1A2A8F8A29101A30300420000A9A303C000421984
:203EA00001A97F2EA90CD10AC1001F3E0467A9FF23A101D10AC4080301D10801A3911F3E0F
:203EC000E181F104671F3D3E671F3B3F633A1F3E04670082BEBEBE06BDBDBD041F3D3E434B
:203EE00042671F3E070FBF07809C0604A6008184C501A4F8C090A30C00B80204A9A1047F23
:203F0000FF30C1F81F3DA9013EA341A967AD82A47FF6A40992210A4243A1926743001A0152
:203F200003A1A3A909C443D4920409C2011F3E04671F3E04670C43FF1F3E04671F3E0467DD
:203F40004384A1BEBEBE06BDA4C1A7FF1A0A9100A50FD1A90CABE1A408A7A47FD6A90A91E6
:203F6000A608A5000A91A9FF0CD108A591E105A5CF0A9100BE06BDA9A4BDBD261F3D3E672C
:203F8000001F360F25C08000C3FF0F1F3D3E67A37F47A21F3EA904A867011F360CA10FE967
:203FA000091F3D3E67A17F47A91F3E0467A2BEBEBE06BD02A4C1FF090A91A607A6000A9188
:203FC0000029A60700027FB90A91A60008A606A60A20A891D10EA60CA68000A1000741A68D
:203FE0007F5FA908F19100A7B1A982BE0602C4FF090A94A607A6000A94001DA60008A60695
:20400000A60A10A894D40DA60BA68000000741A67F5FA900A7B1A98206BDBDBD021F3DA5B4
:20402000A93E4167C07841A9FF01A7AC18C3FF00A3CBA2FFD3A947FFDBA94FFFE3A910FF64
:2040400000EBA1FFF3A1A7FFFBF47FBD00A37F151F393BFFA9AC18A63BA638FFA901A6A785
:20406000A63AFFA9A6A739FF1F3E03A9A7A90467A982BEBEBE06BDBD08A6D4C4484648A5C9
:20408000AC2046A75BC100A8F0A6AAFFAB3BA7ABAA58361000A9AB15AD88A4AD7F5688A4F4
:2040A0007FDCAC204846C1CA5BA6AAFFA9AC1410C1A902C1AC20A6A80FA8E0A6484442A6A5
:2040C000418F8F52FFAE48464846A903C2D288BEBE06BDBDBD02A4C30A9300A2FF41057F79
:2040E000470004A9FF2A0A9309D3817F59A30AC4F700D3E3F3C37FD3A9C3FF41121F3D3E53
:20410000670100C003A201A47FBD1F3E0467A182BEBEBE061F3DBD3EA4671F3D3E67A17F43
:20412000D21F3EA904671F3E0467A1BE06BDBDBDBD02015845A87FA88042A4D6A84E3BA897
:204140007FA880A8A9A5D6A8A4A5A800A6A4FFA5FFFFA4A5A72FA9012742A0A14FAB5A415F
:20416000A0ABA1AB400440A7015AA719A80111A9467FA8A9A6A796A2A382BEBEBEBE06A69B
:2041800096A87FF62000F3AD50691F161A401F00021B7FC0004222A95CA83F011BFF5C041E
:2041A0000F00A9010404A801A6A186A7A101A7A9035C04A90109ECA9FFA8FF01053FFF7F1B
:2041C000571A7FC2A9FFA8FF010EFFFF0601BDA767BEA901A858F77F2C7FBBBDBDA4BDC21E
:2041E0001040003018A1A27F730007981818A3F600BEA1BEBE06BDBDBD0AA43AC37F68A43C
:20420000A923C3A2AD01A5A989A2A4A508B2A1A17F04AD89A401A9A1A9C4AD89A47FDBA90F
:204220000401C30300008ABEBEBE06BDBD021F3DA9A43E67A27FB2002D0A9207041AE2F28A
:2042400007A27F47001DE2A9010AE2C4921FA10A1CA27F47000D16AD4101C281A47FD6A9BF
:20426000FF0B0AC2001F3E0467A9FF061F3E0467A182BEBE06008C7F2B06BDBD641F3DA56A
:20428000A43E67ADE4A1A47FB5A17F97AD0101A9E4A3A4A1A97FB5A37F97C078ADA1A30130
:2042A000E4A9A5F77FBD00A37F151F39CB381F3EA8A90467A1E4BEBE06BD1F3DA53EBDA48A
:2042C000BDA967C2FF21A1010D0A920AE208089241A6A9A6A9A27F47A2A1A90AC4FFC27F15
:2042E000BEA60001A6081F3E0467A9FF061F3E046700BEBEBE06BDBDBD021F3DA8A43E41CD
:2043000067C078A1FFC3A2A1A7FFCB41A9FFC7D3DB7F9701A9A3A2F07FBD00A37F151F39C9
:2043200038391F3EA90467A202A182BEBEBE06BDBDBD021F3DA8A93E4267A100034000C023
:2043400078A2FFC3A20000A7A3FFCBA1FFD3A1C7DBF27FBD42A37F151F3938391F3EA9049B
:2043600067A182BEBEBE06BDBDBD021F3DA8A93E4267A100034000C078A2FFC3A2A1A7A399
:20438000FFCBA1FFD3A1C7DBF3427FBD00A37F151F3938391F3EA90467A182BEBEBE067FD9
:2043A0002B067F7E06BD081F3D4E3E48671F3A008C0CFF081F3E0467A9FF16423F9FAD44DE
:2043C0003FA246AD8EA588A47F121F3EA90467A188BE06BD00A9BD150A131F3D3E67809055
:2043E0000103A101A2C2A9081F3E0467A9FF150CD29467A9A1FF0809C2A900C4FEC21F3EFE
:204400000467A1BEBE067FEBAC01090A01A7D0C4A91701C401A7A6A9A6A6C6F7A72D052B1F
:20442000AB0603AB0101C40101A7A6A9A6A6C6DCAB04AC5CA9AC06BD16AD005883A5B4A605
:20444000A901C50A42A9FF9EA956308D0A42A9FF8FA958F0A603BF8DAD96A6A5A9147F3834
:20446000A11396BE06D4A701D5B2A7B4A708C4C5B6A7B8A719D490A8E00CD590A8E007D403
:20448000DEDDCEA806A701DCA7DD025C06000602045F5A425F42001F1742AB320220020454
:2044A0005F5A425642001F17423202205A001F1742A9205A001F1742200000BD1F3BA93818
:2044C0000DABFFAAFFA9FFA8FFAB037FFF1F3D3E671F3B3CA703A1671F3B3A03A7677FB9DB
:2044E000BE0602581BA87FA88036A8A4D6A8FFA8810FA8E20F065DA8AA2202AAA4025406E1
:20450000200006A8FFA9FFA4F70106BD1F3DA93EBD678078A1FF0000A2C2A1A7FFCAF17FE3
:20452000BD00A27F151F3938391F3EA90467A1BEBE06BD1F3DBDA43E67A27F97407801A9F2
:20454000A1F5A27FBD00A17F151F3938C91F3EA8A90467A1BEBE06BDBDBD08A4CB0015ADAD
:204560000103A188A3A402A9087F38420644467F38CB01A2A1EA88BEBEBE0604C4D4AC20AB
:204580004442415BA9A8FFA7C5D55BA900A800A7ABAA5A0052FFAEA7A603C6D68406DCC451
:2045A000D490D4A5D4AAA800A501130FA509A963A8A600025C06A9FFA6FCA900F900F71BC6
:2045C000421617021B0569BDBDBDBDBD42167FBC221FC11B401ABEBEBEBEBE031702DCC4B4
:2045E000D490D4A5D4AAA800A50111A81FA509A8AA22A60002540602A657FC00FAACFF4234
:2046000009A944B1ACB6ACAC20B1ACB2ACAC20ACFF4203A944B1ACB6ACAC205AA618A93F2A
:2046200016A5000D0601025402A40F74009DA4A3A500A5C6D60633FC00ABA407A9818587A1
:204640000EFEA9A60F000DFFA8BFFE85870EFE85870CF8A4065AA611A9A50096FF12FF0A9E
:20466000A880A3A500A5C6D60633A500A8F0F833F65AA617A916A5001D0601025402A41F38
:2046800074009DA4A3A500A5C6D60633FCBD021F3D3E4267AD82A47FF6149442671F3EA906
:2046A0000467A182BE06414244AAAB5A4220414244AAAB5A4220414244AAAB5A42205AA422
:2046C000130A1101009003A901A4C4A60712D4A996670600010600A8130A1101409003A96D
:2046E00001A5C5A60710D5AB966706A9FF06585A12C4C5A7A6A004A7A606A607A901010177
:204700005AF0000658A712A4C586058101A7FAA701AB81058186A7FD0622001FBE06081674
:20472000360A1A3A0204120C1C1A690600ABFFAAFF01AB04000004A4C4027FE90658A743FB
:204740000BAAC5A684AB068101A7F8000604D542C5444100AD84A57F21840658A609C4A508
:20476000A7068101A6F90006C4070003000601C4A8F906C4A8C50005000101F8061F3E048E
:20478000061F3D3E0606D4C45E03A800D6C6061F22C029681A7F870001A68401FEA606A4FE
:2047A0000201C5FEA9A4060830BE06BD000658A4040186FE06A48586FE06BD12067F8D06FC
:0347C000010606E9
:20500000BDBD2463ADA3A47FD91F36633AC27FAC01E6E000F07F5B22A904BF1F34041F349B
:2050200000021AAD694086A47FB3AD2086A47FB3A900E0BF43AD86A442D5ADA996A57FD21E
:20504000A9001EADAD1F368696A4A5423C3A7FD2A9001B60C4AD0201BF5FA0A47FEBEF9089
:20506000BF62AD020161A2A47FEB224012ADA3A47FD91F363A7FA21F363A29A11CBF56ADA7
:20508000ADBF55BF548696BF53A4A5BF523FE0BF5150BF4F42087FD2BF58AD02015798A432
:2050A0007FEB4FBF5AAD0201599AA47FEB7FA27FF1AD1F363C9658A40A630107ADBF5C5B74
:2050C0009C07AD5EC5BF5D9EA402017FEB011F363E0B000F1F363E01A9013EC440BAC5A243
:2050E000E855ADA3A47FD9A963C57FAC01E5224012A4BEBE062200801F2AC401F4FFA9005F
:165100000606F00206FCE00307E4FFECFF1A0700690601C3FF0688
:2070000041542B43495053454E440D0A000041542B4349504D4F44453D310D0A00004154B8
:207020002B43575141500D0A000041542B43574C41504F50543D312C370D0A0041542B437D
:20704000574C41500D0A000041542B43574C41503D2257692D4669222C2230363A65613AA3
:2070600035363A61303A34373A3831222C352C302C31302C3230300D0A0041542B434950B5
:2070800053544152543D22544350222C223139322E3136382E342E32222C372C3732303007
:2070A0000D0A000041542B43495053544152543D22554450222C223139322E3136382E340C
:2070C0002E31222C372C373230300D0A000041542B43574D4F44455F4355523D310D0A0073
:2070E00041542B554152543D3F0D0A0041540D0A000041542B43574D4F44455F4355523D50
:20710000310D0A0D0A4F4B0041542B43574C41504F50543D312C370D0A0D0A4F4B005265FC
:2071200061736F6E616E63655570646174654669726D77617265000041542B43575141502B
:207140000D0A0D0A4F4B000041542B43574A41503D222000222C22200000313030403130F1
:2071600031402000220D0A200000474F5400434F4E4E4543540D0A0D0A4F4B00414C524545
:2071800041445900257300004F4B00004F4B0D0A0D0A3E00524541534F4E414E43455F4457
:2071A00045564943455F5056484F445F332E305F434F5245535F310D0A00726561736F6E89
:2071C000616E63654031524541534F4E414E43454032000041555448454E544943415449D3
:2071E0004F4E20535543434553530000202020202020202020282828282820202020202011
:20720000202020202020202020202020881010101010101010101010101010104444444466
:207220004444444444441010101010101041414141414101010101010101010101010101B3
:20724000010101010101011010101010104242424242420202020202020202020202020221
:207260000202020202020210101010200000000000000000000000000000000000000000A0
:207280000000000000000000000000000000000000000000000000000000000000000000EE
:2072A0000000000000000000000000000000000000000000000000000000000000000000CE
:2072C0000000000000000000000000000000000000000000000000000000000000000000AE
:2072E0000000000000000000000000003031323334353637383961626364656600003031CB
:20730000323334353637383941424344454600002500000000000000002400C0FFDF000045
:2073200000F0000000F0000000F000000030000000500000009059F81FA500000050000008
:1C73400000F000000000000000900A0B0C0D0E0F000100000050000000500A00BB
:20735C00DD800000000000000000000000120001000000000000000000220002000000007D
:20737C00000000000024E8000000000000000000000002F63F0B3F2F3F673F193F323F7A0D
:20739C003FF590000000000000000100000002FFF80001FEFA000000FEFC000000FF000021
:2073BC00F0FF010000FF020000FE7E00853FFE8400853FFF8F0003FF7D0000FF860000FFA9
:0973DC00800000FF8700000000A2
:207F80000000000000000000000000000000000000000000000000000000000000000000E1
:207FA0000000000000000000000000000000000000000000000000000000000000000000C1
:207FC0000000000000000000000000000000000000000000000000000000000000000000A1
:167FE000000000000000000000000000000000000000000000008B
:027FF6007F8F7B
:087FF800FFFFFFFFFFFFFFFF89
:00000001FF
